{
  "_format": "hh-sol-artifact-1",
  "contractName": "Azerpas",
  "sourceName": "contracts/azerpas.sol",
  "abi": [
    {
      "inputs": [],
      "stateMutability": "nonpayable",
      "type": "constructor"
    },
    {
      "anonymous": false,
      "inputs": [
        {
          "indexed": true,
          "internalType": "address",
          "name": "owner",
          "type": "address"
        },
        {
          "indexed": true,
          "internalType": "address",
          "name": "approved",
          "type": "address"
        },
        {
          "indexed": true,
          "internalType": "uint256",
          "name": "tokenId",
          "type": "uint256"
        }
      ],
      "name": "Approval",
      "type": "event"
    },
    {
      "anonymous": false,
      "inputs": [
        {
          "indexed": true,
          "internalType": "address",
          "name": "owner",
          "type": "address"
        },
        {
          "indexed": true,
          "internalType": "address",
          "name": "operator",
          "type": "address"
        },
        {
          "indexed": false,
          "internalType": "bool",
          "name": "approved",
          "type": "bool"
        }
      ],
      "name": "ApprovalForAll",
      "type": "event"
    },
    {
      "anonymous": false,
      "inputs": [
        {
          "indexed": true,
          "internalType": "address",
          "name": "previousOwner",
          "type": "address"
        },
        {
          "indexed": true,
          "internalType": "address",
          "name": "newOwner",
          "type": "address"
        }
      ],
      "name": "OwnershipTransferred",
      "type": "event"
    },
    {
      "anonymous": false,
      "inputs": [
        {
          "indexed": true,
          "internalType": "address",
          "name": "from",
          "type": "address"
        },
        {
          "indexed": true,
          "internalType": "address",
          "name": "to",
          "type": "address"
        },
        {
          "indexed": true,
          "internalType": "uint256",
          "name": "tokenId",
          "type": "uint256"
        }
      ],
      "name": "Transfer",
      "type": "event"
    },
    {
      "inputs": [],
      "name": "DISTRIBUTED_TO_FNF",
      "outputs": [
        {
          "internalType": "uint256",
          "name": "",
          "type": "uint256"
        }
      ],
      "stateMutability": "view",
      "type": "function"
    },
    {
      "inputs": [],
      "name": "DISTRIBUTED_TO_PRIVATE",
      "outputs": [
        {
          "internalType": "uint256",
          "name": "",
          "type": "uint256"
        }
      ],
      "stateMutability": "view",
      "type": "function"
    },
    {
      "inputs": [],
      "name": "DISTRIBUTED_TO_PUBLIC",
      "outputs": [
        {
          "internalType": "uint256",
          "name": "",
          "type": "uint256"
        }
      ],
      "stateMutability": "view",
      "type": "function"
    },
    {
      "inputs": [],
      "name": "MAX_PER_MINT",
      "outputs": [
        {
          "internalType": "uint256",
          "name": "",
          "type": "uint256"
        }
      ],
      "stateMutability": "view",
      "type": "function"
    },
    {
      "inputs": [],
      "name": "PRICE",
      "outputs": [
        {
          "internalType": "uint256",
          "name": "",
          "type": "uint256"
        }
      ],
      "stateMutability": "view",
      "type": "function"
    },
    {
      "inputs": [],
      "name": "TOTAL_SUPPLY",
      "outputs": [
        {
          "internalType": "uint256",
          "name": "",
          "type": "uint256"
        }
      ],
      "stateMutability": "view",
      "type": "function"
    },
    {
      "inputs": [
        {
          "internalType": "address[]",
          "name": "entries",
          "type": "address[]"
        }
      ],
      "name": "addToPresaleList",
      "outputs": [],
      "stateMutability": "nonpayable",
      "type": "function"
    },
    {
      "inputs": [
        {
          "internalType": "address",
          "name": "to",
          "type": "address"
        },
        {
          "internalType": "uint256",
          "name": "tokenId",
          "type": "uint256"
        }
      ],
      "name": "approve",
      "outputs": [],
      "stateMutability": "nonpayable",
      "type": "function"
    },
    {
      "inputs": [
        {
          "internalType": "address",
          "name": "owner",
          "type": "address"
        }
      ],
      "name": "balanceOf",
      "outputs": [
        {
          "internalType": "uint256",
          "name": "",
          "type": "uint256"
        }
      ],
      "stateMutability": "view",
      "type": "function"
    },
    {
      "inputs": [
        {
          "internalType": "bytes32",
          "name": "hash",
          "type": "bytes32"
        },
        {
          "internalType": "bytes",
          "name": "signature",
          "type": "bytes"
        },
        {
          "internalType": "string",
          "name": "nonce",
          "type": "string"
        },
        {
          "internalType": "uint256",
          "name": "tokenQuantity",
          "type": "uint256"
        }
      ],
      "name": "buy",
      "outputs": [],
      "stateMutability": "payable",
      "type": "function"
    },
    {
      "inputs": [],
      "name": "contractURI",
      "outputs": [
        {
          "internalType": "string",
          "name": "",
          "type": "string"
        }
      ],
      "stateMutability": "view",
      "type": "function"
    },
    {
      "inputs": [
        {
          "internalType": "uint256",
          "name": "tokenId",
          "type": "uint256"
        }
      ],
      "name": "getApproved",
      "outputs": [
        {
          "internalType": "address",
          "name": "",
          "type": "address"
        }
      ],
      "stateMutability": "view",
      "type": "function"
    },
    {
      "inputs": [
        {
          "internalType": "address[]",
          "name": "receivers",
          "type": "address[]"
        }
      ],
      "name": "gift",
      "outputs": [],
      "stateMutability": "nonpayable",
      "type": "function"
    },
    {
      "inputs": [],
      "name": "giftedAmount",
      "outputs": [
        {
          "internalType": "uint256",
          "name": "",
          "type": "uint256"
        }
      ],
      "stateMutability": "view",
      "type": "function"
    },
    {
      "inputs": [
        {
          "internalType": "address",
          "name": "owner",
          "type": "address"
        },
        {
          "internalType": "address",
          "name": "operator",
          "type": "address"
        }
      ],
      "name": "isApprovedForAll",
      "outputs": [
        {
          "internalType": "bool",
          "name": "",
          "type": "bool"
        }
      ],
      "stateMutability": "view",
      "type": "function"
    },
    {
      "inputs": [
        {
          "internalType": "address",
          "name": "addr",
          "type": "address"
        }
      ],
      "name": "isPresaler",
      "outputs": [
        {
          "internalType": "bool",
          "name": "",
          "type": "bool"
        }
      ],
      "stateMutability": "view",
      "type": "function"
    },
    {
      "inputs": [],
      "name": "lockMetadata",
      "outputs": [],
      "stateMutability": "nonpayable",
      "type": "function"
    },
    {
      "inputs": [],
      "name": "locked",
      "outputs": [
        {
          "internalType": "bool",
          "name": "",
          "type": "bool"
        }
      ],
      "stateMutability": "view",
      "type": "function"
    },
    {
      "inputs": [],
      "name": "name",
      "outputs": [
        {
          "internalType": "string",
          "name": "",
          "type": "string"
        }
      ],
      "stateMutability": "view",
      "type": "function"
    },
    {
      "inputs": [],
      "name": "owner",
      "outputs": [
        {
          "internalType": "address",
          "name": "",
          "type": "address"
        }
      ],
      "stateMutability": "view",
      "type": "function"
    },
    {
      "inputs": [
        {
          "internalType": "uint256",
          "name": "tokenId",
          "type": "uint256"
        }
      ],
      "name": "ownerOf",
      "outputs": [
        {
          "internalType": "address",
          "name": "",
          "type": "address"
        }
      ],
      "stateMutability": "view",
      "type": "function"
    },
    {
      "inputs": [
        {
          "internalType": "uint256",
          "name": "tokenQuantity",
          "type": "uint256"
        }
      ],
      "name": "presaleBuy",
      "outputs": [],
      "stateMutability": "payable",
      "type": "function"
    },
    {
      "inputs": [],
      "name": "presaleLive",
      "outputs": [
        {
          "internalType": "bool",
          "name": "",
          "type": "bool"
        }
      ],
      "stateMutability": "view",
      "type": "function"
    },
    {
      "inputs": [],
      "name": "presalePurchaseLimit",
      "outputs": [
        {
          "internalType": "uint256",
          "name": "",
          "type": "uint256"
        }
      ],
      "stateMutability": "view",
      "type": "function"
    },
    {
      "inputs": [
        {
          "internalType": "address",
          "name": "addr",
          "type": "address"
        }
      ],
      "name": "presalePurchasedCount",
      "outputs": [
        {
          "internalType": "uint256",
          "name": "",
          "type": "uint256"
        }
      ],
      "stateMutability": "view",
      "type": "function"
    },
    {
      "inputs": [
        {
          "internalType": "address",
          "name": "",
          "type": "address"
        }
      ],
      "name": "presalerList",
      "outputs": [
        {
          "internalType": "bool",
          "name": "",
          "type": "bool"
        }
      ],
      "stateMutability": "view",
      "type": "function"
    },
    {
      "inputs": [
        {
          "internalType": "address",
          "name": "",
          "type": "address"
        }
      ],
      "name": "presalerListPurchases",
      "outputs": [
        {
          "internalType": "uint256",
          "name": "",
          "type": "uint256"
        }
      ],
      "stateMutability": "view",
      "type": "function"
    },
    {
      "inputs": [],
      "name": "privateAmountMinted",
      "outputs": [
        {
          "internalType": "uint256",
          "name": "",
          "type": "uint256"
        }
      ],
      "stateMutability": "view",
      "type": "function"
    },
    {
      "inputs": [],
      "name": "proof",
      "outputs": [
        {
          "internalType": "string",
          "name": "",
          "type": "string"
        }
      ],
      "stateMutability": "view",
      "type": "function"
    },
    {
      "inputs": [],
      "name": "publicAmountMinted",
      "outputs": [
        {
          "internalType": "uint256",
          "name": "",
          "type": "uint256"
        }
      ],
      "stateMutability": "view",
      "type": "function"
    },
    {
      "inputs": [
        {
          "internalType": "address[]",
          "name": "entries",
          "type": "address[]"
        }
      ],
      "name": "removeFromPresaleList",
      "outputs": [],
      "stateMutability": "nonpayable",
      "type": "function"
    },
    {
      "inputs": [],
      "name": "renounceOwnership",
      "outputs": [],
      "stateMutability": "nonpayable",
      "type": "function"
    },
    {
      "inputs": [
        {
          "internalType": "address",
          "name": "from",
          "type": "address"
        },
        {
          "internalType": "address",
          "name": "to",
          "type": "address"
        },
        {
          "internalType": "uint256",
          "name": "tokenId",
          "type": "uint256"
        }
      ],
      "name": "safeTransferFrom",
      "outputs": [],
      "stateMutability": "nonpayable",
      "type": "function"
    },
    {
      "inputs": [
        {
          "internalType": "address",
          "name": "from",
          "type": "address"
        },
        {
          "internalType": "address",
          "name": "to",
          "type": "address"
        },
        {
          "internalType": "uint256",
          "name": "tokenId",
          "type": "uint256"
        },
        {
          "internalType": "bytes",
          "name": "_data",
          "type": "bytes"
        }
      ],
      "name": "safeTransferFrom",
      "outputs": [],
      "stateMutability": "nonpayable",
      "type": "function"
    },
    {
      "inputs": [],
      "name": "saleLive",
      "outputs": [
        {
          "internalType": "bool",
          "name": "",
          "type": "bool"
        }
      ],
      "stateMutability": "view",
      "type": "function"
    },
    {
      "inputs": [
        {
          "internalType": "address",
          "name": "operator",
          "type": "address"
        },
        {
          "internalType": "bool",
          "name": "approved",
          "type": "bool"
        }
      ],
      "name": "setApprovalForAll",
      "outputs": [],
      "stateMutability": "nonpayable",
      "type": "function"
    },
    {
      "inputs": [
        {
          "internalType": "string",
          "name": "URI",
          "type": "string"
        }
      ],
      "name": "setBaseURI",
      "outputs": [],
      "stateMutability": "nonpayable",
      "type": "function"
    },
    {
      "inputs": [
        {
          "internalType": "string",
          "name": "URI",
          "type": "string"
        }
      ],
      "name": "setContractURI",
      "outputs": [],
      "stateMutability": "nonpayable",
      "type": "function"
    },
    {
      "inputs": [
        {
          "internalType": "string",
          "name": "hash",
          "type": "string"
        }
      ],
      "name": "setProvenanceHash",
      "outputs": [],
      "stateMutability": "nonpayable",
      "type": "function"
    },
    {
      "inputs": [
        {
          "internalType": "address",
          "name": "addr",
          "type": "address"
        }
      ],
      "name": "setSignerAddress",
      "outputs": [],
      "stateMutability": "nonpayable",
      "type": "function"
    },
    {
      "inputs": [
        {
          "internalType": "bytes4",
          "name": "interfaceId",
          "type": "bytes4"
        }
      ],
      "name": "supportsInterface",
      "outputs": [
        {
          "internalType": "bool",
          "name": "",
          "type": "bool"
        }
      ],
      "stateMutability": "view",
      "type": "function"
    },
    {
      "inputs": [],
      "name": "symbol",
      "outputs": [
        {
          "internalType": "string",
          "name": "",
          "type": "string"
        }
      ],
      "stateMutability": "view",
      "type": "function"
    },
    {
      "inputs": [],
      "name": "togglePresaleStatus",
      "outputs": [],
      "stateMutability": "nonpayable",
      "type": "function"
    },
    {
      "inputs": [],
      "name": "toggleSaleStatus",
      "outputs": [],
      "stateMutability": "nonpayable",
      "type": "function"
    },
    {
      "inputs": [
        {
          "internalType": "uint256",
          "name": "index",
          "type": "uint256"
        }
      ],
      "name": "tokenByIndex",
      "outputs": [
        {
          "internalType": "uint256",
          "name": "",
          "type": "uint256"
        }
      ],
      "stateMutability": "view",
      "type": "function"
    },
    {
      "inputs": [
        {
          "internalType": "address",
          "name": "owner",
          "type": "address"
        },
        {
          "internalType": "uint256",
          "name": "index",
          "type": "uint256"
        }
      ],
      "name": "tokenOfOwnerByIndex",
      "outputs": [
        {
          "internalType": "uint256",
          "name": "",
          "type": "uint256"
        }
      ],
      "stateMutability": "view",
      "type": "function"
    },
    {
      "inputs": [
        {
          "internalType": "uint256",
          "name": "tokenId",
          "type": "uint256"
        }
      ],
      "name": "tokenURI",
      "outputs": [
        {
          "internalType": "string",
          "name": "",
          "type": "string"
        }
      ],
      "stateMutability": "view",
      "type": "function"
    },
    {
      "inputs": [],
      "name": "totalSupply",
      "outputs": [
        {
          "internalType": "uint256",
          "name": "",
          "type": "uint256"
        }
      ],
      "stateMutability": "view",
      "type": "function"
    },
    {
      "inputs": [
        {
          "internalType": "address",
          "name": "from",
          "type": "address"
        },
        {
          "internalType": "address",
          "name": "to",
          "type": "address"
        },
        {
          "internalType": "uint256",
          "name": "tokenId",
          "type": "uint256"
        }
      ],
      "name": "transferFrom",
      "outputs": [],
      "stateMutability": "nonpayable",
      "type": "function"
    },
    {
      "inputs": [
        {
          "internalType": "address",
          "name": "newOwner",
          "type": "address"
        }
      ],
      "name": "transferOwnership",
      "outputs": [],
      "stateMutability": "nonpayable",
      "type": "function"
    },
    {
      "inputs": [],
      "name": "withdraw",
      "outputs": [],
      "stateMutability": "nonpayable",
      "type": "function"
    }
  ],
  "bytecode": "0x60e06040526021608081815290620038ac60a03980516200002991600f916020909101906200015f565b50601080546001600160a01b031990811673df56443c80c0f08bd766da095f68bbd2c45f2cb41790915560118054909116735260818d61ff27b7d0db3a96310246c041f7191e17905560026016553480156200008457600080fd5b506040805180820182526007815266417a657270617360c81b60208083019182528351808501909452600484526330bd32b960e11b908401528151919291620000d0916000916200015f565b508051620000e69060019060208401906200015f565b50505062000103620000fd6200010960201b60201c565b6200010d565b62000242565b3390565b600a80546001600160a01b038381166001600160a01b0319831681179093556040519116919082907f8be0079c531659141344cd1fd0a4f28419497f9722a3daafe3b4186f6b6457e090600090a35050565b8280546200016d9062000205565b90600052602060002090601f016020900481019282620001915760008555620001dc565b82601f10620001ac57805160ff1916838001178555620001dc565b82800160010185558215620001dc579182015b82811115620001dc578251825591602001919060010190620001bf565b50620001ea929150620001ee565b5090565b5b80821115620001ea5760008155600101620001ef565b6002810460018216806200021a57607f821691505b602082108114156200023c57634e487b7160e01b600052602260045260246000fd5b50919050565b61365a80620002526000396000f3fe6080604052600436106102e45760003560e01c8063815f7bbd116101905780639ec70f19116100dc578063cf30901211610095578063e985e9c51161006f578063e985e9c5146107fc578063f2fde38b1461081c578063f47430701461083c578063faf924cf14610851576102e4565b8063cf309012146107bd578063e081b781146107d2578063e8a3d485146107e7576102e4565b80639ec70f1914610715578063a22cb46514610728578063b179e06014610748578063b88d4fde14610768578063c87b56dd14610788578063ce6063da146107a8576102e4565b8063940f1ada11610149578063989bdbb611610123578063989bdbb6146106a05780639bf80316146106b55780639cf2e8d6146106d55780639e273b2f146106f5576102e4565b8063940f1ada1461066157806395d89b4114610676578063965682c01461068b576102e4565b8063815f7bbd146105da57806383a9e049146105ed5780638d859f3e146106025780638da5cb5b14610617578063902d55a51461062c578063938e3d7b14610641576102e4565b806323b872dd1161024f57806359a12ad51161020857806370a08231116101e257806370a0823114610570578063715018a6146105905780637204a3c9146105a55780637bffb4ce146105c5576102e4565b806359a12ad51461051b5780635ce7af1f146105305780636352211e14610550576102e4565b806323b872dd146104665780632f745c59146104865780633ccfd60b146104a657806342842e0e146104bb5780634f6ccce7146104db57806355f804b3146104fb576102e4565b806309d42b30116102a157806309d42b30146103c557806310969523146103e7578063163e1e611461040757806316fe0aee1461042757806318160ddd1461043c5780631b57190e14610451576102e4565b806301ffc9a7146102e9578063046dc1661461031f578063049c5c491461034157806306fdde0314610356578063081812fc14610378578063095ea7b3146103a5575b600080fd5b3480156102f557600080fd5b5061030961030436600461295e565b610866565b6040516103169190612bd4565b60405180910390f35b34801561032b57600080fd5b5061033f61033a36600461271a565b610893565b005b34801561034d57600080fd5b5061033f6108fd565b34801561036257600080fd5b5061036b610959565b6040516103169190612bfd565b34801561038457600080fd5b506103986103933660046129f1565b6109eb565b6040516103169190612b83565b3480156103b157600080fd5b5061033f6103c0366004612841565b610a2e565b3480156103d157600080fd5b506103da610ac6565b60405161031691906134bf565b3480156103f357600080fd5b5061033f610402366004612996565b610acb565b34801561041357600080fd5b5061033f61042236600461286a565b610b3f565b34801561043357600080fd5b506103da610c7a565b34801561044857600080fd5b506103da610c7f565b34801561045d57600080fd5b506103da610c85565b34801561047257600080fd5b5061033f610481366004612766565b610c8b565b34801561049257600080fd5b506103da6104a1366004612841565b610cc3565b3480156104b257600080fd5b5061033f610d15565b3480156104c757600080fd5b5061033f6104d6366004612766565b610d83565b3480156104e757600080fd5b506103da6104f63660046129f1565b610d9e565b34801561050757600080fd5b5061033f610516366004612996565b610df9565b34801561052757600080fd5b506103da610e6d565b34801561053c57600080fd5b506103da61054b36600461271a565b610e73565b34801561055c57600080fd5b5061039861056b3660046129f1565b610e8e565b34801561057c57600080fd5b506103da61058b36600461271a565b610ec3565b34801561059c57600080fd5b5061033f610f07565b3480156105b157600080fd5b5061033f6105c036600461286a565b610f52565b3480156105d157600080fd5b5061033f611068565b61033f6105e83660046129f1565b6110bb565b3480156105f957600080fd5b5061030961125c565b34801561060e57600080fd5b506103da611265565b34801561062357600080fd5b50610398611270565b34801561063857600080fd5b506103da61127f565b34801561064d57600080fd5b5061033f61065c366004612996565b61129c565b34801561066d57600080fd5b506103da611310565b34801561068257600080fd5b5061036b611316565b34801561069757600080fd5b506103da611325565b3480156106ac57600080fd5b5061033f61132b565b3480156106c157600080fd5b506103da6106d036600461271a565b61137d565b3480156106e157600080fd5b506103096106f036600461271a565b61138f565b34801561070157600080fd5b5061030961071036600461271a565b6113a4565b61033f6107233660046128d9565b6113c2565b34801561073457600080fd5b5061033f610743366004612807565b6115d1565b34801561075457600080fd5b5061033f61076336600461286a565b61169f565b34801561077457600080fd5b5061033f6107833660046127a1565b611779565b34801561079457600080fd5b5061036b6107a33660046129f1565b6117b8565b3480156107b457600080fd5b506103da611811565b3480156107c957600080fd5b50610309611817565b3480156107de57600080fd5b50610309611826565b3480156107f357600080fd5b5061036b611834565b34801561080857600080fd5b50610309610817366004612734565b611843565b34801561082857600080fd5b5061033f61083736600461271a565b611871565b34801561084857600080fd5b506103da6118df565b34801561085d57600080fd5b5061036b6118e5565b60006001600160e01b0319821663780e9d6360e01b148061088b575061088b82611973565b90505b919050565b61089b6119b3565b6001600160a01b03166108ac611270565b6001600160a01b0316146108db5760405162461bcd60e51b81526004016108d2906131db565b60405180910390fd5b601180546001600160a01b0319166001600160a01b0392909216919091179055565b6109056119b3565b6001600160a01b0316610916611270565b6001600160a01b03161461093c5760405162461bcd60e51b81526004016108d2906131db565b6017805461ff001981166101009182900460ff1615909102179055565b60606000805461096890613562565b80601f016020809104026020016040519081016040528092919081815260200182805461099490613562565b80156109e15780601f106109b6576101008083540402835291602001916109e1565b820191906000526020600020905b8154815290600101906020018083116109c457829003601f168201915b5050505050905090565b60006109f6826119b7565b610a125760405162461bcd60e51b81526004016108d29061318f565b506000908152600460205260409020546001600160a01b031690565b6000610a3982610e8e565b9050806001600160a01b0316836001600160a01b03161415610a6d5760405162461bcd60e51b81526004016108d2906132fb565b806001600160a01b0316610a7f6119b3565b6001600160a01b03161480610a9b5750610a9b816108176119b3565b610ab75760405162461bcd60e51b81526004016108d290613006565b610ac183836119d4565b505050565b600581565b610ad36119b3565b6001600160a01b0316610ae4611270565b6001600160a01b031614610b0a5760405162461bcd60e51b81526004016108d2906131db565b60175462010000900460ff1615610b335760405162461bcd60e51b81526004016108d290613259565b610ac1601283836125d4565b610b476119b3565b6001600160a01b0316610b58611270565b6001600160a01b031614610b7e5760405162461bcd60e51b81526004016108d2906131db565b612710610b8e6103e8606f6134d4565b610b9891906134d4565b81610ba1610c7f565b610bab91906134d4565b1115610bc95760405162461bcd60e51b81526004016108d290613138565b601354606f90610bda9083906134d4565b1115610bf85760405162461bcd60e51b81526004016108d290612fb9565b60005b81811015610ac15760138054906000610c138361359d565b9190505550610c68838383818110610c3b57634e487b7160e01b600052603260045260246000fd5b9050602002016020810190610c50919061271a565b610c58610c7f565b610c639060016134d4565b611a42565b80610c728161359d565b915050610bfb565b606f81565b60085490565b60135481565b610c9c610c966119b3565b82611a5c565b610cb85760405162461bcd60e51b81526004016108d2906133aa565b610ac1838383611ae1565b6000610cce83610ec3565b8210610cec5760405162461bcd60e51b81526004016108d290612cfc565b506001600160a01b03919091166000908152600660209081526040808320938352929052205490565b610d1d6119b3565b6001600160a01b0316610d2e611270565b6001600160a01b031614610d545760405162461bcd60e51b81526004016108d2906131db565b60405133904780156108fc02916000818181858888f19350505050158015610d80573d6000803e3d6000fd5b50565b610ac183838360405180602001604052806000815250611779565b6000610da8610c7f565b8210610dc65760405162461bcd60e51b81526004016108d2906133fb565b60088281548110610de757634e487b7160e01b600052603260045260246000fd5b90600052602060002001549050919050565b610e016119b3565b6001600160a01b0316610e12611270565b6001600160a01b031614610e385760405162461bcd60e51b81526004016108d2906131db565b60175462010000900460ff1615610e615760405162461bcd60e51b81526004016108d290613259565b610ac1600f83836125d4565b60155481565b6001600160a01b03166000908152600d602052604090205490565b6000818152600260205260408120546001600160a01b03168061088b5760405162461bcd60e51b81526004016108d2906130ad565b60006001600160a01b038216610eeb5760405162461bcd60e51b81526004016108d290613063565b506001600160a01b031660009081526003602052604090205490565b610f0f6119b3565b6001600160a01b0316610f20611270565b6001600160a01b031614610f465760405162461bcd60e51b81526004016108d2906131db565b610f506000611c0e565b565b610f5a6119b3565b6001600160a01b0316610f6b611270565b6001600160a01b031614610f915760405162461bcd60e51b81526004016108d2906131db565b60005b81811015610ac1576000838383818110610fbe57634e487b7160e01b600052603260045260246000fd5b9050602002016020810190610fd3919061271a565b90506001600160a01b038116610ffb5760405162461bcd60e51b81526004016108d290612c6f565b6001600160a01b0381166000908152600c602052604090205460ff16156110345760405162461bcd60e51b81526004016108d290612f6a565b6001600160a01b03166000908152600c60205260409020805460ff19166001179055806110608161359d565b915050610f94565b6110706119b3565b6001600160a01b0316611081611270565b6001600160a01b0316146110a75760405162461bcd60e51b81526004016108d2906131db565b6017805460ff19811660ff90911615179055565b601754610100900460ff161580156110d5575060175460ff165b6110f15760405162461bcd60e51b81526004016108d290612c47565b336000908152600c602052604090205460ff166111205760405162461bcd60e51b81526004016108d29061329d565b6127106111306103e8606f6134d4565b61113a91906134d4565b611142610c7f565b1061115f5760405162461bcd60e51b81526004016108d290612e91565b6103e88160155461117091906134d4565b111561118e5760405162461bcd60e51b81526004016108d290613447565b601654336000908152600d60205260409020546111ac9083906134d4565b11156111ca5760405162461bcd60e51b81526004016108d29061346f565b346111dc8266b1a2bc2ec50000613500565b11156111fa5760405162461bcd60e51b81526004016108d290613495565b60005b8181101561125857601580549060006112158361359d565b9091555050336000908152600d602052604081208054916112358361359d565b919050555061124633610c58610c7f565b806112508161359d565b9150506111fd565b5050565b60175460ff1681565b66b1a2bc2ec5000081565b600a546001600160a01b031690565b61271061128f6103e8606f6134d4565b61129991906134d4565b81565b6112a46119b3565b6001600160a01b03166112b5611270565b6001600160a01b0316146112db5760405162461bcd60e51b81526004016108d2906131db565b60175462010000900460ff16156113045760405162461bcd60e51b81526004016108d290613259565b610ac1600e83836125d4565b60145481565b60606001805461096890613562565b61271081565b6113336119b3565b6001600160a01b0316611344611270565b6001600160a01b03161461136a5760405162461bcd60e51b81526004016108d2906131db565b6017805462ff0000191662010000179055565b600d6020526000908152604090205481565b600c6020526000908152604090205460ff1681565b6001600160a01b03166000908152600c602052604090205460ff1690565b601754610100900460ff166113e95760405162461bcd60e51b81526004016108d290612ef9565b60175460ff161561140c5760405162461bcd60e51b81526004016108d290612f93565b6114168484611c60565b6114325760405162461bcd60e51b81526004016108d290612c95565b600b826040516114429190612a90565b9081526040519081900360200190205460ff16156114725760405162461bcd60e51b81526004016108d290613387565b8361147e338385611c84565b1461149b5760405162461bcd60e51b81526004016108d290612fe3565b6127106114ab6103e8606f6134d4565b6114b591906134d4565b6114bd610c7f565b106114da5760405162461bcd60e51b81526004016108d290612e91565b612710816014546114eb91906134d4565b11156115095760405162461bcd60e51b81526004016108d29061333c565b600581111561152a5760405162461bcd60e51b81526004016108d290613363565b3461153c8266b1a2bc2ec50000613500565b111561155a5760405162461bcd60e51b81526004016108d290613495565b60005b8181101561159857601480549060006115758361359d565b919050555061158633610c58610c7f565b806115908161359d565b91505061155d565b506001600b836040516115ab9190612a90565b908152604051908190036020019020805491151560ff1990921691909117905550505050565b6115d96119b3565b6001600160a01b0316826001600160a01b0316141561160a5760405162461bcd60e51b81526004016108d290612e5a565b80600560006116176119b3565b6001600160a01b03908116825260208083019390935260409182016000908120918716808252919093529120805460ff19169215159290921790915561165b6119b3565b6001600160a01b03167f17307eab39ab6107e8899845ad3d59bd9653f200f220920489ca2b5937696c31836040516116939190612bd4565b60405180910390a35050565b6116a76119b3565b6001600160a01b03166116b8611270565b6001600160a01b0316146116de5760405162461bcd60e51b81526004016108d2906131db565b60005b81811015610ac157600083838381811061170b57634e487b7160e01b600052603260045260246000fd5b9050602002016020810190611720919061271a565b90506001600160a01b0381166117485760405162461bcd60e51b81526004016108d290612c6f565b6001600160a01b03166000908152600c60205260409020805460ff19169055806117718161359d565b9150506116e1565b61178a6117846119b3565b83611a5c565b6117a65760405162461bcd60e51b81526004016108d2906133aa565b6117b284848484611ce3565b50505050565b60606117c3826119b7565b6117df5760405162461bcd60e51b81526004016108d2906132c4565b600f6117ea83611d16565b6040516020016117fb929190612aac565b6040516020818303038152906040529050919050565b6103e881565b60175462010000900460ff1681565b601754610100900460ff1681565b6060600e805461096890613562565b6001600160a01b03918216600090815260056020908152604080832093909416825291909152205460ff1690565b6118796119b3565b6001600160a01b031661188a611270565b6001600160a01b0316146118b05760405162461bcd60e51b81526004016108d2906131db565b6001600160a01b0381166118d65760405162461bcd60e51b81526004016108d290612d99565b610d8081611c0e565b60165481565b601280546118f290613562565b80601f016020809104026020016040519081016040528092919081815260200182805461191e90613562565b801561196b5780601f106119405761010080835404028352916020019161196b565b820191906000526020600020905b81548152906001019060200180831161194e57829003601f168201915b505050505081565b60006001600160e01b031982166380ac58cd60e01b14806119a457506001600160e01b03198216635b5e139f60e01b145b8061088b575061088b82611e31565b3390565b6000908152600260205260409020546001600160a01b0316151590565b600081815260046020526040902080546001600160a01b0319166001600160a01b0384169081179091558190611a0982610e8e565b6001600160a01b03167f8c5be1e5ebec7d5bd14f71427d1e84f3dd0314c0f7b2291e5b200ac8c7c3b92560405160405180910390a45050565b611258828260405180602001604052806000815250611e4a565b6000611a67826119b7565b611a835760405162461bcd60e51b81526004016108d290612f1e565b6000611a8e83610e8e565b9050806001600160a01b0316846001600160a01b03161480611ac95750836001600160a01b0316611abe846109eb565b6001600160a01b0316145b80611ad95750611ad98185611843565b949350505050565b826001600160a01b0316611af482610e8e565b6001600160a01b031614611b1a5760405162461bcd60e51b81526004016108d290613210565b6001600160a01b038216611b405760405162461bcd60e51b81526004016108d290612e16565b611b4b838383611e7d565b611b566000826119d4565b6001600160a01b0383166000908152600360205260408120805460019290611b7f90849061351f565b90915550506001600160a01b0382166000908152600360205260408120805460019290611bad9084906134d4565b909155505060008181526002602052604080822080546001600160a01b0319166001600160a01b0386811691821790925591518493918716917fddf252ad1be2c89b69c2b068fc378daa952ba7f163c4a11628f55a4df523b3ef91a4505050565b600a80546001600160a01b038381166001600160a01b0319831681179093556040519116919082907f8be0079c531659141344cd1fd0a4f28419497f9722a3daafe3b4186f6b6457e090600090a35050565b6000611c6c8383611f06565b6011546001600160a01b039182169116149392505050565b600080848484604051602001611c9c93929190612a51565b60405160208183030381529060405280519060200120604051602001611cc29190612b52565b60408051808303601f19018152919052805160209091012095945050505050565b611cee848484611ae1565b611cfa84848484611f2a565b6117b25760405162461bcd60e51b81526004016108d290612d47565b606081611d3b57506040805180820190915260018152600360fc1b602082015261088e565b8160005b8115611d655780611d4f8161359d565b9150611d5e9050600a836134ec565b9150611d3f565b60008167ffffffffffffffff811115611d8e57634e487b7160e01b600052604160045260246000fd5b6040519080825280601f01601f191660200182016040528015611db8576020820181803683370190505b5090505b8415611ad957611dcd60018361351f565b9150611dda600a866135b8565b611de59060306134d4565b60f81b818381518110611e0857634e487b7160e01b600052603260045260246000fd5b60200101906001600160f81b031916908160001a905350611e2a600a866134ec565b9450611dbc565b6001600160e01b031981166301ffc9a760e01b14919050565b611e548383612045565b611e616000848484611f2a565b610ac15760405162461bcd60e51b81526004016108d290612d47565b611e88838383610ac1565b6001600160a01b038316611ea457611e9f81612124565b611ec7565b816001600160a01b0316836001600160a01b031614611ec757611ec78382612168565b6001600160a01b038216611ee357611ede81612205565b610ac1565b826001600160a01b0316826001600160a01b031614610ac157610ac182826122de565b6000806000611f158585612322565b91509150611f2281612392565b509392505050565b6000611f3e846001600160a01b03166124bf565b1561203a57836001600160a01b031663150b7a02611f5a6119b3565b8786866040518563ffffffff1660e01b8152600401611f7c9493929190612b97565b602060405180830381600087803b158015611f9657600080fd5b505af1925050508015611fc6575060408051601f3d908101601f19168201909252611fc39181019061297a565b60015b612020573d808015611ff4576040519150601f19603f3d011682016040523d82523d6000602084013e611ff9565b606091505b5080516120185760405162461bcd60e51b81526004016108d290612d47565b805181602001fd5b6001600160e01b031916630a85bd0160e11b149050611ad9565b506001949350505050565b6001600160a01b03821661206b5760405162461bcd60e51b81526004016108d29061315a565b612074816119b7565b156120915760405162461bcd60e51b81526004016108d290612ddf565b61209d60008383611e7d565b6001600160a01b03821660009081526003602052604081208054600192906120c69084906134d4565b909155505060008181526002602052604080822080546001600160a01b0319166001600160a01b03861690811790915590518392907fddf252ad1be2c89b69c2b068fc378daa952ba7f163c4a11628f55a4df523b3ef908290a45050565b600880546000838152600960205260408120829055600182018355919091527ff3f7a9fe364faab93b216da50a3214154f22a0a2b415b23a84c8169e8b636ee30155565b6000600161217584610ec3565b61217f919061351f565b6000838152600760205260409020549091508082146121d2576001600160a01b03841660009081526006602090815260408083208584528252808320548484528184208190558352600790915290208190555b5060009182526007602090815260408084208490556001600160a01b039094168352600681528383209183525290812055565b6008546000906122179060019061351f565b6000838152600960205260408120546008805493945090928490811061224d57634e487b7160e01b600052603260045260246000fd5b90600052602060002001549050806008838154811061227c57634e487b7160e01b600052603260045260246000fd5b60009182526020808320909101929092558281526009909152604080822084905585825281205560088054806122c257634e487b7160e01b600052603160045260246000fd5b6001900381819060005260206000200160009055905550505050565b60006122e983610ec3565b6001600160a01b039093166000908152600660209081526040808320868452825280832085905593825260079052919091209190915550565b6000808251604114156123595760208301516040840151606085015160001a61234d878285856124c5565b9450945050505061238b565b82516040141561238357602083015160408401516123788683836125a5565b93509350505061238b565b506000905060025b9250929050565b60008160048111156123b457634e487b7160e01b600052602160045260246000fd5b14156123bf57610d80565b60018160048111156123e157634e487b7160e01b600052602160045260246000fd5b14156123ff5760405162461bcd60e51b81526004016108d290612c10565b600281600481111561242157634e487b7160e01b600052602160045260246000fd5b141561243f5760405162461bcd60e51b81526004016108d290612cc5565b600381600481111561246157634e487b7160e01b600052602160045260246000fd5b141561247f5760405162461bcd60e51b81526004016108d290612eb7565b60048160048111156124a157634e487b7160e01b600052602160045260246000fd5b1415610d805760405162461bcd60e51b81526004016108d2906130f6565b3b151590565b6000807f7fffffffffffffffffffffffffffffff5d576e7357a4501ddfe92f46681b20a08311156124fc575060009050600361259c565b8460ff16601b1415801561251457508460ff16601c14155b15612525575060009050600461259c565b60006001878787876040516000815260200160405260405161254a9493929190612bdf565b6020604051602081039080840390855afa15801561256c573d6000803e3d6000fd5b5050604051601f1901519150506001600160a01b0381166125955760006001925092505061259c565b9150600090505b94509492505050565b6000806001600160ff1b03831660ff84901c601b016125c6878288856124c5565b935093505050935093915050565b8280546125e090613562565b90600052602060002090601f0160209004810192826126025760008555612648565b82601f1061261b5782800160ff19823516178555612648565b82800160010185558215612648579182015b8281111561264857823582559160200191906001019061262d565b50612654929150612658565b5090565b5b808211156126545760008155600101612659565b600067ffffffffffffffff80841115612688576126886135f8565b604051601f8501601f1916810160200182811182821017156126ac576126ac6135f8565b6040528481529150818385018610156126c457600080fd5b8484602083013760006020868301015250509392505050565b80356001600160a01b038116811461088e57600080fd5b600082601f830112612704578081fd5b6127138383356020850161266d565b9392505050565b60006020828403121561272b578081fd5b612713826126dd565b60008060408385031215612746578081fd5b61274f836126dd565b915061275d602084016126dd565b90509250929050565b60008060006060848603121561277a578081fd5b612783846126dd565b9250612791602085016126dd565b9150604084013590509250925092565b600080600080608085870312156127b6578081fd5b6127bf856126dd565b93506127cd602086016126dd565b925060408501359150606085013567ffffffffffffffff8111156127ef578182fd5b6127fb878288016126f4565b91505092959194509250565b60008060408385031215612819578182fd5b612822836126dd565b915060208301358015158114612836578182fd5b809150509250929050565b60008060408385031215612853578182fd5b61285c836126dd565b946020939093013593505050565b6000806020838503121561287c578182fd5b823567ffffffffffffffff80821115612893578384fd5b818501915085601f8301126128a6578384fd5b8135818111156128b4578485fd5b86602080830285010111156128c7578485fd5b60209290920196919550909350505050565b600080600080608085870312156128ee578384fd5b84359350602085013567ffffffffffffffff8082111561290c578485fd5b612918888389016126f4565b9450604087013591508082111561292d578384fd5b508501601f8101871361293e578283fd5b61294d8782356020840161266d565b949793965093946060013593505050565b60006020828403121561296f578081fd5b81356127138161360e565b60006020828403121561298b578081fd5b81516127138161360e565b600080602083850312156129a8578182fd5b823567ffffffffffffffff808211156129bf578384fd5b818501915085601f8301126129d2578384fd5b8135818111156129e0578485fd5b8660208285010111156128c7578485fd5b600060208284031215612a02578081fd5b5035919050565b60008151808452612a21816020860160208601613536565b601f01601f19169290920160200192915050565b60008151612a47818560208601613536565b9290920192915050565b60006bffffffffffffffffffffffff198560601b1682528360148301528251612a81816034850160208701613536565b91909101603401949350505050565b60008251612aa2818460208701613536565b9190910192915050565b8254600090819060028104600180831680612ac857607f831692505b6020808410821415612ae857634e487b7160e01b87526022600452602487fd5b818015612afc5760018114612b0d57612b39565b60ff19861689528489019650612b39565b612b168b6134c8565b885b86811015612b315781548b820152908501908301612b18565b505084890196505b505050505050612b498185612a35565b95945050505050565b7f19457468657265756d205369676e6564204d6573736167653a0a3332000000008152601c810191909152603c0190565b6001600160a01b0391909116815260200190565b6001600160a01b0385811682528416602082015260408101839052608060608201819052600090612bca90830184612a09565b9695505050505050565b901515815260200190565b93845260ff9290921660208401526040830152606082015260800190565b6000602082526127136020830184612a09565b60208082526018908201527f45434453413a20696e76616c6964207369676e61747572650000000000000000604082015260600190565b6020808252600e908201526d14149154d0531157d0d313d4d15160921b604082015260600190565b6020808252600c908201526b4e554c4c5f4144445245535360a01b604082015260600190565b6020808252601690820152751112549150d517d352539517d11254d0531313d5d15160521b604082015260600190565b6020808252601f908201527f45434453413a20696e76616c6964207369676e6174757265206c656e67746800604082015260600190565b6020808252602b908201527f455243373231456e756d657261626c653a206f776e657220696e646578206f7560408201526a74206f6620626f756e647360a81b606082015260800190565b60208082526032908201527f4552433732313a207472616e7366657220746f206e6f6e20455243373231526560408201527131b2b4bb32b91034b6b83632b6b2b73a32b960711b606082015260800190565b60208082526026908201527f4f776e61626c653a206e6577206f776e657220697320746865207a65726f206160408201526564647265737360d01b606082015260800190565b6020808252601c908201527f4552433732313a20746f6b656e20616c7265616479206d696e74656400000000604082015260600190565b60208082526024908201527f4552433732313a207472616e7366657220746f20746865207a65726f206164646040820152637265737360e01b606082015260800190565b60208082526019908201527f4552433732313a20617070726f766520746f2063616c6c657200000000000000604082015260600190565b6020808252600c908201526b4f55545f4f465f53544f434b60a01b604082015260600190565b60208082526022908201527f45434453413a20696e76616c6964207369676e6174757265202773272076616c604082015261756560f01b606082015260800190565b6020808252600b908201526a14d0531157d0d313d4d15160aa1b604082015260600190565b6020808252602c908201527f4552433732313a206f70657261746f7220717565727920666f72206e6f6e657860408201526b34b9ba32b73a103a37b5b2b760a11b606082015260800190565b6020808252600f908201526e4455504c49434154455f454e54525960881b604082015260600190565b6020808252600c908201526b4f4e4c595f50524553414c4560a01b604082015260600190565b60208082526010908201526f4558434545445f52454345495645525360801b604082015260600190565b602080825260099082015268121054d217d190525360ba1b604082015260600190565b60208082526038908201527f4552433732313a20617070726f76652063616c6c6572206973206e6f74206f7760408201527f6e6572206e6f7220617070726f76656420666f7220616c6c0000000000000000606082015260800190565b6020808252602a908201527f4552433732313a2062616c616e636520717565727920666f7220746865207a65604082015269726f206164647265737360b01b606082015260800190565b60208082526029908201527f4552433732313a206f776e657220717565727920666f72206e6f6e657869737460408201526832b73a103a37b5b2b760b91b606082015260800190565b60208082526022908201527f45434453413a20696e76616c6964207369676e6174757265202776272076616c604082015261756560f01b606082015260800190565b60208082526008908201526713505617d352539560c21b604082015260600190565b6020808252818101527f4552433732313a206d696e7420746f20746865207a65726f2061646472657373604082015260600190565b6020808252602c908201527f4552433732313a20617070726f76656420717565727920666f72206e6f6e657860408201526b34b9ba32b73a103a37b5b2b760a11b606082015260800190565b6020808252818101527f4f776e61626c653a2063616c6c6572206973206e6f7420746865206f776e6572604082015260600190565b60208082526029908201527f4552433732313a207472616e73666572206f6620746f6b656e2074686174206960408201526839903737ba1037bbb760b91b606082015260800190565b60208082526024908201527f436f6e7472616374206d65746164617461206d6574686f647320617265206c6f60408201526318dad95960e21b606082015260800190565b6020808252600d908201526c1393d517d45550531251925151609a1b604082015260600190565b6020808252601f908201527f43616e6e6f74207175657279206e6f6e2d6578697374656e7420746f6b656e00604082015260600190565b60208082526021908201527f4552433732313a20617070726f76616c20746f2063757272656e74206f776e656040820152603960f91b606082015260800190565b6020808252600d908201526c4558434545445f5055424c494360981b604082015260600190565b6020808252600a908201526908ab0868a8a88be9a82b60b31b604082015260600190565b602080825260099082015268121054d217d554d15160ba1b604082015260600190565b60208082526031908201527f4552433732313a207472616e736665722063616c6c6572206973206e6f74206f6040820152701ddb995c881b9bdc88185c1c1c9bdd9959607a1b606082015260800190565b6020808252602c908201527f455243373231456e756d657261626c653a20676c6f62616c20696e646578206f60408201526b7574206f6620626f756e647360a01b606082015260800190565b6020808252600e908201526d4558434545445f5052495641544560901b604082015260600190565b6020808252600c908201526b4558434545445f414c4c4f4360a01b604082015260600190565b60208082526010908201526f0929ca6aa8c8c9286928a9ca8be8aa8960831b604082015260600190565b90815260200190565b60009081526020902090565b600082198211156134e7576134e76135cc565b500190565b6000826134fb576134fb6135e2565b500490565b600081600019048311821515161561351a5761351a6135cc565b500290565b600082821015613531576135316135cc565b500390565b60005b83811015613551578181015183820152602001613539565b838111156117b25750506000910152565b60028104600182168061357657607f821691505b6020821081141561359757634e487b7160e01b600052602260045260246000fd5b50919050565b60006000198214156135b1576135b16135cc565b5060010190565b6000826135c7576135c76135e2565b500690565b634e487b7160e01b600052601160045260246000fd5b634e487b7160e01b600052601260045260246000fd5b634e487b7160e01b600052604160045260246000fd5b6001600160e01b031981168114610d8057600080fdfea26469706673582212200c17333e4a49ce58f188ffdb8b418a323638780bde6c95f441bf222815cc668a64736f6c6343000800003368747470733a2f2f617a65727061732e636f6d2f6170692f6d657461646174612f",
  "linkReferences": {},
  "deployedLinkReferences": {}
}